******************************************************************************
                  TI ARM Linker PC v18.12.2                    
******************************************************************************
>> Linked Wed Oct  2 07:30:21 2019

OUTPUT FILE NAME:   <Lab10_Debug.out>
ENTRY POINT SYMBOL: "_c_int00_noargs"  address: 000017b1


MEMORY CONFIGURATION

         name            origin    length      used     unused   attr    fill
----------------------  --------  ---------  --------  --------  ----  --------
  MAIN                  00000000   00040000  000018c0  0003e740  R  X
  INFO                  00200000   00004000  00000000  00004000  R  X
  SRAM_CODE             01000000   00010000  0000042a  0000fbd6  RW X
  SRAM_DATA             20000000   00010000  0000042a  0000fbd6  RW  


SEGMENT ALLOCATION MAP

run origin  load origin   length   init length attrs members
----------  ----------- ---------- ----------- ----- -------
00000000    00000000    000018c0   000018c0    r-x
  00000000    00000000    000000e4   000000e4    r-- .intvecs
  000000e4    000000e4    00001764   00001764    r-x .text
  00001848    00001848    00000040   00000040    r-- .const
  00001888    00001888    00000038   00000038    r-- .cinit
20000000    20000000    0000022c   00000000    rw-
  20000000    20000000    0000020e   00000000    rw- .bss
  20000210    20000210    0000001c   00000000    rw- .data
2000fe00    2000fe00    00000200   00000000    rw-
  2000fe00    2000fe00    00000200   00000000    rw- .stack


SECTION ALLOCATION MAP

 output                                  attributes/
section   page    origin      length       input sections
--------  ----  ----------  ----------   ----------------
.intvecs   0    00000000    000000e4     
                  00000000    000000e4     startup_msp432p401r_ccs.obj (.intvecs:retain)

.text      0    000000e4    00001764     
                  000000e4    000009e8     FlashProgram.obj (.text)
                  00000acc    00000330     Lab10_Debugmain.obj (.text)
                  00000dfc    0000032c     system_msp432p401r.obj (.text)
                  00001128    000001e0     Clock.obj (.text)
                  00001308    0000018c     Reflectance.obj (.text)
                  00001494    000000f4     LaunchPad.obj (.text)
                  00001588    000000a0     Bump.obj (.text)
                  00001628    0000009c     rtsv7M4_T_le_v4SPD16_eabi.lib : memcpy_t2.asm.obj (.text)
                  000016c4    00000068                                   : copy_decompress_lzss.c.obj (.text:decompress:lzss:__TI_decompress_lzss)
                  0000172c    00000044                                   : autoinit.c.obj (.text:__TI_auto_init_nobinit_nopinit:__TI_auto_init_nobinit_nopinit)
                  00001770    00000040     SysTickInts.obj (.text)
                  000017b0    00000034     rtsv7M4_T_le_v4SPD16_eabi.lib : boot_cortex_m.c.obj (.text:_c_int00_noargs:_c_int00_noargs)
                  000017e4    00000024     CortexM.obj (.text)
                  00001808    0000001c     rtsv7M4_T_le_v4SPD16_eabi.lib : copy_zero_init.c.obj (.text:decompress:ZI:__TI_zero_init_nomemset:__TI_zero_init_nomemset)
                  00001824    0000000e                                   : copy_decompress_none.c.obj (.text:decompress:none:__TI_decompress_none)
                  00001832    0000000e     startup_msp432p401r_ccs.obj (.text)
                  00001840    00000004     rtsv7M4_T_le_v4SPD16_eabi.lib : pre_init.c.obj (.text:_system_pre_init)
                  00001844    00000004                                   : exit.c.obj (.text:abort:abort)

.const     0    00001848    00000040     
                  00001848    00000020     Reflectance.obj (.const:mask)
                  00001868    00000020     Reflectance.obj (.const:weight)

.cinit     0    00001888    00000038     
                  00001888    0000000d     (.cinit..data.load) [load image, compression = lzss]
                  00001895    00000003     --HOLE-- [fill = 0]
                  00001898    0000000c     (__TI_handler_table)
                  000018a4    00000004     --HOLE-- [fill = 0]
                  000018a8    00000008     (.cinit..bss.load) [load image, compression = zero_init]
                  000018b0    00000010     (__TI_cinit_table)

.init_array 
*          0    00000000    00000000     UNINITIALIZED

.binit     0    00000000    00000000     

.bss       0    20000000    0000020e     UNINITIALIZED
                  20000000    00000200     (.common:Buffer)
                  20000200    00000004     (.common:I)
                  20000204    00000004     (.common:J)
                  20000208    00000004     (.common:Time)
                  2000020c    00000001     (.common:Bump)
                  2000020d    00000001     (.common:Data)

.data      0    20000210    0000001c     UNINITIALIZED
                  20000210    00000018     Clock.obj (.data)
                  20000228    00000004     system_msp432p401r.obj (.data)

.stack     0    2000fe00    00000200     UNINITIALIZED
                  2000fe00    00000004     rtsv7M4_T_le_v4SPD16_eabi.lib : boot_cortex_m.c.obj (.stack)
                  2000fe04    000001fc     --HOLE--

MODULE SUMMARY

       Module                        code   ro data   rw data
       ------                        ----   -------   -------
    .\
       FlashProgram.obj              2536   0         0      
       Lab10_Debugmain.obj           816    0         1052   
       system_msp432p401r.obj        812    0         8      
       Clock.obj                     480    0         48     
       Reflectance.obj               396    64        0      
       LaunchPad.obj                 244    0         0      
       startup_msp432p401r_ccs.obj   14     228       0      
       Bump.obj                      160    0         0      
       SysTickInts.obj               64     0         0      
       CortexM.obj                   36     0         0      
    +--+-----------------------------+------+---------+---------+
       Total:                        5558   292       1108   
                                                             
    C:\ti\ccs910\ccs\tools\compiler\ti-cgt-arm_18.12.2.LTS\lib\rtsv7M4_T_le_v4SPD16_eabi.lib
       memcpy_t2.asm.obj             156    0         0      
       copy_decompress_lzss.c.obj    104    0         0      
       autoinit.c.obj                68     0         0      
       boot_cortex_m.c.obj           52     0         0      
       copy_zero_init.c.obj          28     0         0      
       copy_decompress_none.c.obj    14     0         0      
       exit.c.obj                    4      0         0      
       pre_init.c.obj                4      0         0      
    +--+-----------------------------+------+---------+---------+
       Total:                        430    0         0      
                                                             
       Stack:                        0      0         1024   
       Linker Generated:             0      49        0      
    +--+-----------------------------+------+---------+---------+
       Grand Total:                  5988   341       2132   


LINKER GENERATED COPY TABLES

__TI_cinit_table @ 000018b0 records: 2, size/record: 8, table size: 16
	.data: load addr=00001888, load size=0000000d bytes, run addr=20000210, run size=0000001c bytes, compression=lzss
	.bss: load addr=000018a8, load size=00000008 bytes, run addr=20000000, run size=0000020e bytes, compression=zero_init


LINKER GENERATED HANDLER TABLE

__TI_handler_table @ 00001898 records: 3, size/record: 4, table size: 12
	index: 0, handler: __TI_decompress_lzss
	index: 1, handler: __TI_decompress_none
	index: 2, handler: __TI_zero_init


GLOBAL SYMBOLS: SORTED ALPHABETICALLY BY Name 

address   name                          
-------   ----                          
0000183f  ADC14_IRQHandler              
0000183f  AES256_IRQHandler             
20000000  Buffer                        
2000020c  Bump                          
00001589  Bump_Init                     
000015bd  Bump_Read                     
0000183f  BusFault_Handler              
00001845  C$$EXIT                       
0000183f  COMP_E0_IRQHandler            
0000183f  COMP_E1_IRQHandler            
20000218  CPMwait                       
0000183f  CS_IRQHandler                 
20000210  ClockFrequency                
0000127d  Clock_Delay1ms                
00001253  Clock_Delay1us                
0000123f  Clock_GetFreq                 
00001129  Clock_Init48MHz               
20000224  Crystalstable                 
0000183f  DMA_ERR_IRQHandler            
0000183f  DMA_INT0_IRQHandler           
0000183f  DMA_INT1_IRQHandler           
0000183f  DMA_INT2_IRQHandler           
0000183f  DMA_INT3_IRQHandler           
2000020d  Data                          
0000183f  DebugMon_Handler              
00000ad5  Debug_Dump                    
00000b09  Debug_FlashInit               
00000b6b  Debug_FlashRecord             
00000acd  Debug_Init                    
0000183f  Default_Handler               
000017e5  DisableInterrupts             
0000183f  EUSCIA0_IRQHandler            
0000183f  EUSCIA1_IRQHandler            
0000183f  EUSCIA2_IRQHandler            
0000183f  EUSCIA3_IRQHandler            
0000183f  EUSCIB0_IRQHandler            
0000183f  EUSCIB1_IRQHandler            
0000183f  EUSCIB2_IRQHandler            
0000183f  EUSCIB3_IRQHandler            
000017eb  EnableInterrupts              
000017fb  EndCritical                   
0000183f  FLCTL_IRQHandler              
0000183f  FPU_IRQHandler                
000008c9  Flash_Erase                   
0000040d  Flash_FastWrite               
00000187  Flash_Init                    
00000193  Flash_Write                   
000003a9  Flash_WriteArray              
0000183f  HardFault_Handler             
20000200  I                             
20000220  IFlags                        
20000204  J                             
00001495  LaunchPad_Init                
00001505  LaunchPad_Input               
0000151f  LaunchPad_LED                 
0000153d  LaunchPad_Output              
0000183f  MemManage_Handler             
0000183f  NMI_Handler                   
0000183f  PCM_IRQHandler                
0000183f  PORT1_IRQHandler              
0000183f  PORT2_IRQHandler              
0000183f  PORT3_IRQHandler              
0000183f  PORT4_IRQHandler              
0000183f  PORT5_IRQHandler              
0000183f  PORT6_IRQHandler              
0000183f  PSS_IRQHandler                
0000183f  PendSV_Handler                
2000021c  Postwait                      
20000214  Prewait                       
00000c75  Program10_1                   
00000cb9  Program10_2                   
00000d43  Program10_3                   
0000183f  RTC_C_IRQHandler              
00001391  Reflectance_Center            
00001447  Reflectance_End               
00001309  Reflectance_Init              
000013b3  Reflectance_Position          
0000134b  Reflectance_Read              
0000141f  Reflectance_Start             
00001833  Reset_Handler                 
0000183f  SVC_Handler                   
000017f1  StartCritical                 
00000b9b  SysTick_Handler               
00000b9b  SysTick_Handler               
00001771  SysTick_Init                  
20000228  SystemCoreClock               
00000dfd  SystemCoreClockUpdate         
00001071  SystemInit                    
0000183f  T32_INT1_IRQHandler           
0000183f  T32_INT2_IRQHandler           
0000183f  T32_INTC_IRQHandler           
0000183f  TA0_0_IRQHandler              
0000183f  TA0_N_IRQHandler              
0000183f  TA1_0_IRQHandler              
0000183f  TA1_N_IRQHandler              
0000183f  TA2_0_IRQHandler              
0000183f  TA2_N_IRQHandler              
0000183f  TA3_0_IRQHandler              
0000183f  TA3_N_IRQHandler              
20000208  Time                          
0000183f  UsageFault_Handler            
4000480c  WDTCTL_SYM                    
0000183f  WDT_A_IRQHandler              
00001803  WaitForInterrupt              
20010000  __STACK_END                   
00000200  __STACK_SIZE                  
000018b0  __TI_CINIT_Base               
000018c0  __TI_CINIT_Limit              
00001898  __TI_Handler_Table_Base       
000018a4  __TI_Handler_Table_Limit      
0000172d  __TI_auto_init_nobinit_nopinit
000016c5  __TI_decompress_lzss          
00001825  __TI_decompress_none          
ffffffff  __TI_pprof_out_hndl           
ffffffff  __TI_prof_data_size           
ffffffff  __TI_prof_data_start          
00000000  __TI_static_base__            
00001809  __TI_zero_init_nomemset       
00001629  __aeabi_memcpy                
00001629  __aeabi_memcpy4               
00001629  __aeabi_memcpy8               
ffffffff  __binit__                     
ffffffff  __c_args__                    
UNDEFED   __mpu_init                    
2000fe00  __stack                       
000017b1  _c_int00_noargs               
UNDEFED   _system_post_cinit            
00001841  _system_pre_init              
00001845  abort                         
ffffffff  binit                         
00001245  delay                         
00000000  interruptVectors              
00000dcd  main                          
00000be9  main1                         
00001848  mask                          
00001629  memcpy                        
00001868  weight                        


GLOBAL SYMBOLS: SORTED BY Symbol Address 

address   name                          
-------   ----                          
00000000  __TI_static_base__            
00000000  interruptVectors              
00000187  Flash_Init                    
00000193  Flash_Write                   
00000200  __STACK_SIZE                  
000003a9  Flash_WriteArray              
0000040d  Flash_FastWrite               
000008c9  Flash_Erase                   
00000acd  Debug_Init                    
00000ad5  Debug_Dump                    
00000b09  Debug_FlashInit               
00000b6b  Debug_FlashRecord             
00000b9b  SysTick_Handler               
00000b9b  SysTick_Handler               
00000be9  main1                         
00000c75  Program10_1                   
00000cb9  Program10_2                   
00000d43  Program10_3                   
00000dcd  main                          
00000dfd  SystemCoreClockUpdate         
00001071  SystemInit                    
00001129  Clock_Init48MHz               
0000123f  Clock_GetFreq                 
00001245  delay                         
00001253  Clock_Delay1us                
0000127d  Clock_Delay1ms                
00001309  Reflectance_Init              
0000134b  Reflectance_Read              
00001391  Reflectance_Center            
000013b3  Reflectance_Position          
0000141f  Reflectance_Start             
00001447  Reflectance_End               
00001495  LaunchPad_Init                
00001505  LaunchPad_Input               
0000151f  LaunchPad_LED                 
0000153d  LaunchPad_Output              
00001589  Bump_Init                     
000015bd  Bump_Read                     
00001629  __aeabi_memcpy                
00001629  __aeabi_memcpy4               
00001629  __aeabi_memcpy8               
00001629  memcpy                        
000016c5  __TI_decompress_lzss          
0000172d  __TI_auto_init_nobinit_nopinit
00001771  SysTick_Init                  
000017b1  _c_int00_noargs               
000017e5  DisableInterrupts             
000017eb  EnableInterrupts              
000017f1  StartCritical                 
000017fb  EndCritical                   
00001803  WaitForInterrupt              
00001809  __TI_zero_init_nomemset       
00001825  __TI_decompress_none          
00001833  Reset_Handler                 
0000183f  ADC14_IRQHandler              
0000183f  AES256_IRQHandler             
0000183f  BusFault_Handler              
0000183f  COMP_E0_IRQHandler            
0000183f  COMP_E1_IRQHandler            
0000183f  CS_IRQHandler                 
0000183f  DMA_ERR_IRQHandler            
0000183f  DMA_INT0_IRQHandler           
0000183f  DMA_INT1_IRQHandler           
0000183f  DMA_INT2_IRQHandler           
0000183f  DMA_INT3_IRQHandler           
0000183f  DebugMon_Handler              
0000183f  Default_Handler               
0000183f  EUSCIA0_IRQHandler            
0000183f  EUSCIA1_IRQHandler            
0000183f  EUSCIA2_IRQHandler            
0000183f  EUSCIA3_IRQHandler            
0000183f  EUSCIB0_IRQHandler            
0000183f  EUSCIB1_IRQHandler            
0000183f  EUSCIB2_IRQHandler            
0000183f  EUSCIB3_IRQHandler            
0000183f  FLCTL_IRQHandler              
0000183f  FPU_IRQHandler                
0000183f  HardFault_Handler             
0000183f  MemManage_Handler             
0000183f  NMI_Handler                   
0000183f  PCM_IRQHandler                
0000183f  PORT1_IRQHandler              
0000183f  PORT2_IRQHandler              
0000183f  PORT3_IRQHandler              
0000183f  PORT4_IRQHandler              
0000183f  PORT5_IRQHandler              
0000183f  PORT6_IRQHandler              
0000183f  PSS_IRQHandler                
0000183f  PendSV_Handler                
0000183f  RTC_C_IRQHandler              
0000183f  SVC_Handler                   
0000183f  T32_INT1_IRQHandler           
0000183f  T32_INT2_IRQHandler           
0000183f  T32_INTC_IRQHandler           
0000183f  TA0_0_IRQHandler              
0000183f  TA0_N_IRQHandler              
0000183f  TA1_0_IRQHandler              
0000183f  TA1_N_IRQHandler              
0000183f  TA2_0_IRQHandler              
0000183f  TA2_N_IRQHandler              
0000183f  TA3_0_IRQHandler              
0000183f  TA3_N_IRQHandler              
0000183f  UsageFault_Handler            
0000183f  WDT_A_IRQHandler              
00001841  _system_pre_init              
00001845  C$$EXIT                       
00001845  abort                         
00001848  mask                          
00001868  weight                        
00001898  __TI_Handler_Table_Base       
000018a4  __TI_Handler_Table_Limit      
000018b0  __TI_CINIT_Base               
000018c0  __TI_CINIT_Limit              
20000000  Buffer                        
20000200  I                             
20000204  J                             
20000208  Time                          
2000020c  Bump                          
2000020d  Data                          
20000210  ClockFrequency                
20000214  Prewait                       
20000218  CPMwait                       
2000021c  Postwait                      
20000220  IFlags                        
20000224  Crystalstable                 
20000228  SystemCoreClock               
2000fe00  __stack                       
20010000  __STACK_END                   
4000480c  WDTCTL_SYM                    
ffffffff  __TI_pprof_out_hndl           
ffffffff  __TI_prof_data_size           
ffffffff  __TI_prof_data_start          
ffffffff  __binit__                     
ffffffff  __c_args__                    
ffffffff  binit                         
UNDEFED   __mpu_init                    
UNDEFED   _system_post_cinit            

[137 symbols]
