******************************************************************************
                  TI ARM Linker PC v16.9.0                     
******************************************************************************
>> Linked Wed Jan 24 20:50:18 2018

OUTPUT FILE NAME:   <Lab19_BLE.out>
ENTRY POINT SYMBOL: "_c_int00"  address: 00004c69


MEMORY CONFIGURATION

         name            origin    length      used     unused   attr    fill
----------------------  --------  ---------  --------  --------  ----  --------
  MAIN                  00000000   00040000  000051e0  0003ae20  R  X
  INFO                  00200000   00004000  00000000  00004000  R  X
  SRAM_CODE             01000000   00010000  00003faa  0000c056  RW X
  SRAM_DATA             20000000   00010000  00003faa  0000c056  RW  


SEGMENT ALLOCATION MAP

run origin  load origin   length   init length attrs members
----------  ----------- ---------- ----------- ----- -------
00000000    00000000    000051e0   000051e0    r-x
  00000000    00000000    000000e4   000000e4    r-- .intvecs
  000000e4    000000e4    00004d84   00004d84    r-x .text
  00004e68    00004e68    00000228   00000228    r-- .const
  00005090    00005090    00000150   00000150    r-- .cinit
20000000    20000000    00003db0   00000000    rw-
  20000000    20000000    0000369a   00000000    rw- .bss
  200036a0    200036a0    00000400   00000000    rw- .sysmem
  20003aa0    20003aa0    00000310   00000000    rw- .data
2000fe00    2000fe00    00000200   00000000    rw-
  2000fe00    2000fe00    00000200   00000000    rw- .stack


SECTION ALLOCATION MAP

 output                                  attributes/
section   page    origin      length       input sections
--------  ----  ----------  ----------   ----------------
.intvecs   0    00000000    000000e4     
                  00000000    000000e4     startup_msp432p401r_ccs.obj (.intvecs:retain)

.binit     0    00000000    00000000     

.text      0    000000e4    00004d84     
                  000000e4    00001010     AP.obj (.text)
                  000010f4    0000093c     Nokia5110.obj (.text)
                  00001a30    00000780     Lab19_TestMain.obj (.text)
                  000021b0    000006bc     UART0.obj (.text)
                  0000286c    000003d0     rtsv7M4_T_le_v4SPD16_eabi.lib : memory.obj (.text)
                  00002c3c    0000032c     system_msp432p401r.obj (.text)
                  00002f68    00000324     rtsv7M4_T_le_v4SPD16_eabi.lib : trgdrv.obj (.text)
                  0000328c    0000030c                                   : lowlev.obj (.text)
                  00003598    00000304     LPF.obj (.text)
                  0000389c    000002ec     ADC14.obj (.text)
                  00003b88    00000228     PWM.obj (.text)
                  00003db0    000001e0     Clock.obj (.text)
                  00003f90    000001c4     rtsv7M4_T_le_v4SPD16_eabi.lib : fopen.obj (.text)
                  00004154    000001a4     UART1.obj (.text)
                  000042f8    0000018c     Motor.obj (.text)
                  00004484    000000f4     LaunchPad.obj (.text)
                  00004578    000000dc     rtsv7M4_T_le_v4SPD16_eabi.lib : setvbuf.obj (.text)
                  00004654    000000c8                                   : fflush.obj (.text)
                  0000471c    000000c0     GPIO.obj (.text)
                  000047dc    000000a8     TimerA1.obj (.text)
                  00004884    0000009c     rtsv7M4_T_le_v4SPD16_eabi.lib : memcpy_t2.obj (.text)
                  00004920    00000098                                   : fclose.obj (.text)
                  000049b8    0000007c     IRDistance.obj (.text)
                  00004a34    0000007a     rtsv7M4_T_le_v4SPD16_eabi.lib : memset_t2.obj (.text)
                  00004aae    00000002                                   : mpu_init.obj (.text)
                  00004ab0    00000078     Bump.obj (.text)
                  00004b28    00000070     rtsv7M4_T_le_v4SPD16_eabi.lib : autoinit.obj (.text)
                  00004b98    00000068                                   : copy_decompress_lzss.obj (.text:decompress:lzss)
                  00004c00    00000068                                   : trgmsg.obj (.text)
                  00004c68    00000054                                   : boot.obj (.text)
                  00004cbc    00000054                                   : exit.obj (.text)
                  00004d10    0000004c                                   : cpy_tbl.obj (.text)
                  00004d5c    00000036                                   : strncpy.obj (.text)
                  00004d92    00000024     CortexM.obj (.text)
                  00004db6    00000002     rtsv7M4_T_le_v4SPD16_eabi.lib : startup.obj (.text)
                  00004db8    00000018                                   : args_main.obj (.text)
                  00004dd0    00000018                                   : strcmp.obj (.text)
                  00004de8    00000016                                   : strchr.obj (.text)
                  00004dfe    00000002     --HOLE-- [fill = 0]
                  00004e00    00000014                                   : _lock.obj (.text)
                  00004e14    00000014                                   : strcpy.obj (.text)
                  00004e28    00000014                                   : strlen.obj (.text)
                  00004e3c    0000000e                                   : copy_decompress_none.obj (.text:decompress:none)
                  00004e4a    0000000e     startup_msp432p401r_ccs.obj (.text)
                  00004e58    0000000c     rtsv7M4_T_le_v4SPD16_eabi.lib : copy_zero_init.obj (.text:decompress:ZI)
                  00004e64    00000004                                   : pre_init.obj (.text)

.const     0    00004e68    00000228     
                  00004e68    000001e0     Nokia5110.obj (.const:ASCII)
                  00005048    00000014     AP.obj (.const:.string:NPI_StartAdvertisement)
                  0000505c    00000011     AP.obj (.const:.string:NPI_SetAdvertisement1)
                  0000506d    00000009     AP.obj (.const:.string:HCI_EXT_ResetSystemCmd)
                  00005076    00000008     Nokia5110.obj (.const:.string:Masks)
                  0000507e    00000006     AP.obj (.const:.string:NPI_GetStatus)
                  00005084    00000006     AP.obj (.const:.string:NPI_GetVersion)
                  0000508a    00000006     AP.obj (.const:.string:NPI_Register)

.cinit     0    00005090    00000150     
                  00005090    00000128     (.cinit..data.load) [load image, compression = lzss]
                  000051b8    0000000c     (__TI_handler_table)
                  000051c4    00000004     --HOLE-- [fill = 0]
                  000051c8    00000008     (.cinit..bss.load) [load image, compression = zero_init]
                  000051d0    00000010     (__TI_cinit_table)

.init_array 
*          0    00000000    00000000     UNINITIALIZED

.bss       0    20000000    0000369a     UNINITIALIZED
                  20000000    00001000     (.common:x)
                  20001000    00001000     (.common:x2)
                  20002000    00001000     (.common:x3)
                  20003000    000001f8     (.common:Screen)
                  200031f8    00000120     rtsv7M4_T_le_v4SPD16_eabi.lib : trgmsg.obj (.bss:_CIOBUF_)
                  20003318    00000100     (.common:RxFIFO)
                  20003418    000000a0     (.common:CharacteristicList)
                  200034b8    000000a0     (.common:__TI_tmpnams)
                  20003558    00000080     (.common:RecvBuf)
                  200035d8    00000050     (.common:NotifyCharacteristicList)
                  20003628    00000008                                   : trgdrv.obj (.bss:parmbuf)
                  20003630    00000008     (.common:Messageb)
                  20003638    00000004     (.common:ADCflag)
                  2000363c    00000004     (.common:Center)
                  20003640    00000004     (.common:I1)
                  20003644    00000004     (.common:LPFSum)
                  20003648    00000004     (.common:LPFSum2)
                  2000364c    00000004     (.common:LPFSum3)
                  20003650    00000004     (.common:Left)
                  20003654    00000004     (.common:Messageindexb)
                  20003658    00000004     (.common:NoSOFErr)
                  2000365c    00000004     (.common:Pt)
                  20003660    00000004     (.common:Pt2)
                  20003664    00000004     (.common:Pt3)
                  20003668    00000004     (.common:Right)
                  2000366c    00000004     (.common:RxFifoLost)
                  20003670    00000004     (.common:RxGetI)
                  20003674    00000004     (.common:RxPutI)
                  20003678    00000004     (.common:Size)
                  2000367c    00000004     (.common:Switch2)
                  20003680    00000004     (.common:TimeOutErr)
                  20003684    00000004     (.common:TimerA1Task)
                  20003688    00000004     (.common:fcserr)
                  2000368c    00000004     (.common:nc)
                  20003690    00000004     (.common:nl)
                  20003694    00000004     (.common:nr)
                  20003698    00000002     (.common:Switch1)

.sysmem    0    200036a0    00000400     UNINITIALIZED
                  200036a0    00000008     rtsv7M4_T_le_v4SPD16_eabi.lib : memory.obj (.sysmem)
                  200036a8    000003f8     --HOLE--

.data      0    20003aa0    00000310     UNINITIALIZED
                  20003aa0    000000f0     rtsv7M4_T_le_v4SPD16_eabi.lib : defs.obj (.data:_ftable)
                  20003b90    000000d0                                   : lowlev.obj (.data:$O1$$)
                  20003c60    00000025     AP.obj (.data:NPI_SetAdvertisementData)
                  20003c85    00000020     AP.obj (.data:NPI_AddCharDescriptor)
                  20003ca5    0000001e     AP.obj (.data:NPI_SetAdvertisementDataJacki)
                  20003cc3    0000001c     AP.obj (.data:NPI_GATTSetDeviceName)
                  20003cdf    00000001     --HOLE--
                  20003ce0    00000018     Clock.obj (.data)
                  20003cf8    00000015     AP.obj (.data:NPI_GATTSetDeviceNameJacki)
                  20003d0d    00000015     AP.obj (.data:NPI_ReadConfirmation)
                  20003d22    00000014     AP.obj (.data:NPI_SendNotificationIndication)
                  20003d36    00000002     --HOLE--
                  20003d38    00000010     rtsv7M4_T_le_v4SPD16_eabi.lib : defs.obj (.data)
                  20003d48    0000000e     AP.obj (.data:NPI_AddCharValue)
                  20003d56    00000002     --HOLE--
                  20003d58    0000000c     rtsv7M4_T_le_v4SPD16_eabi.lib : exit.obj (.data:$O1$$)
                  20003d64    0000000c                                   : memory.obj (.data:$O1$$)
                  20003d70    00000009     AP.obj (.data:NPI_AddService)
                  20003d79    00000009     AP.obj (.data:NPI_CCCDUpdatedConfirmation)
                  20003d82    00000009     AP.obj (.data:NPI_WriteConfirmation)
                  20003d8b    00000001     --HOLE--
                  20003d8c    00000008     rtsv7M4_T_le_v4SPD16_eabi.lib : _lock.obj (.data:$O1$$)
                  20003d94    00000008     AP.obj (.data)
                  20003d9c    00000008     Lab19_TestMain.obj (.data)
                  20003da4    00000004     rtsv7M4_T_le_v4SPD16_eabi.lib : fopen.obj (.data)
                  20003da8    00000004                                   : stkdepth_vars.obj (.data)
                  20003dac    00000004     system_msp432p401r.obj (.data)

.stack     0    2000fe00    00000200     UNINITIALIZED
                  2000fe00    00000200     --HOLE--

MODULE SUMMARY

       Module                        code    ro data   rw data
       ------                        ----    -------   -------
    .\
       LPF.obj                       772     0         24640  
       AP.obj                        4112    64        1236   
       Nokia5110.obj                 2364    488       1008   
       Lab19_TestMain.obj            1920    0         84     
       UART0.obj                     1724    0         24     
       UART1.obj                     420     0         536    
       system_msp432p401r.obj        812     0         8      
       ADC14.obj                     748     0         0      
       PWM.obj                       552     0         0      
       Clock.obj                     480     0         48     
       Motor.obj                     396     0         0      
       LaunchPad.obj                 244     0         0      
       startup_msp432p401r_ccs.obj   14      228       0      
       GPIO.obj                      192     0         0      
       TimerA1.obj                   168     0         8      
       IRDistance.obj                124     0         0      
       Bump.obj                      120     0         0      
       CortexM.obj                   36      0         0      
    +--+-----------------------------+-------+---------+---------+
       Total:                        15198   780       27592  
                                                              
    C:\ti\ccsv7\tools\compiler\ti-cgt-arm_16.9.0.LTS\lib\rtsv7M4_T_le_v4SPD16_eabi.lib
       lowlev.obj                    780     0         416    
       memory.obj                    976     0         24     
       defs.obj                      0       0         832    
       trgdrv.obj                    804     0         16     
       trgmsg.obj                    104     0         576    
       fopen.obj                     452     0         8      
       setvbuf.obj                   220     0         0      
       fflush.obj                    200     0         0      
       memcpy_t2.obj                 156     0         0      
       fclose.obj                    152     0         0      
       memset_t2.obj                 122     0         0      
       autoinit.obj                  112     0         0      
       exit.obj                      84      0         24     
       copy_decompress_lzss.obj      104     0         0      
       boot.obj                      84      0         0      
       cpy_tbl.obj                   76      0         0      
       strncpy.obj                   54      0         0      
       _lock.obj                     20      0         16     
       args_main.obj                 24      0         0      
       strcmp.obj                    24      0         0      
       strchr.obj                    22      0         0      
       strcpy.obj                    20      0         0      
       strlen.obj                    20      0         0      
       copy_decompress_none.obj      14      0         0      
       copy_zero_init.obj            12      0         0      
       stkdepth_vars.obj             0       0         8      
       pre_init.obj                  4       0         0      
       mpu_init.obj                  2       0         0      
       startup.obj                   2       0         0      
    +--+-----------------------------+-------+---------+---------+
       Total:                        4644    0         1920   
                                                              
       Heap:                         0       0         2048   
       Stack:                        0       0         1024   
       Linker Generated:             0       332       0      
    +--+-----------------------------+-------+---------+---------+
       Grand Total:                  19842   1112      32584  


LINKER GENERATED COPY TABLES

__TI_cinit_table @ 000051d0 records: 2, size/record: 8, table size: 16
	.data: load addr=00005090, load size=00000128 bytes, run addr=20003aa0, run size=00000310 bytes, compression=lzss
	.bss: load addr=000051c8, load size=00000008 bytes, run addr=20000000, run size=0000369a bytes, compression=zero_init


LINKER GENERATED HANDLER TABLE

__TI_handler_table @ 000051b8 records: 3, size/record: 4, table size: 12
	index: 0, handler: __TI_decompress_lzss
	index: 1, handler: __TI_decompress_none
	index: 2, handler: __TI_zero_init


GLOBAL SYMBOLS: SORTED ALPHABETICALLY BY Name 

address   name                           
-------   ----                           
00003999  ADC0_InitSWTriggerCh12         
00003a09  ADC0_InitSWTriggerCh17_12_16   
00003ab9  ADC0_InitSWTriggerCh19         
0000389d  ADC0_InitSWTriggerCh6          
0000390d  ADC0_InitSWTriggerCh67         
00004e57  ADC14_IRQHandler               
000039e9  ADC_In12                       
00003a79  ADC_In17_12_16                 
00003b09  ADC_In19                       
000038ed  ADC_In6                        
00003963  ADC_In67                       
20003638  ADCflag                        
00004e57  AES256_IRQHandler              
00000745  AP_AddCharacteristic           
00000901  AP_AddNotifyCharacteristic     
000006ed  AP_AddService                  
00000e11  AP_BackgroundProcess           
00000289  AP_EchoReceived                
0000021d  AP_EchoSendMessage             
000006d7  AP_GetNotifyCCCD               
000001f3  AP_GetSize                     
00000ce5  AP_GetStatus                   
00000d1d  AP_GetVersion                  
0000010d  AP_Init                        
000004ad  AP_RecvMessage                 
00000689  AP_RecvStatus                  
00000725  AP_RegisterService             
000000e5  AP_Reset                       
00000311  AP_SendMessage                 
00000697  AP_SendMessageResponse         
00000b2d  AP_SendNotification            
00000c2d  AP_StartAdvertisement          
00000c81  AP_StartAdvertisementJacki     
00001bd1  BLE_Init                       
00004ab1  Bump_Init                      
00004ae5  Bump_Read                      
00004e57  BusFault_Handler               
00001bad  Button1                        
00001bbf  Button2                        
00004cbd  C$$EXIT                        
00004c2f  C$$IO$$                        
00004e57  COMP_E0_IRQHandler             
00004e57  COMP_E1_IRQHandler             
20003ce8  CPMwait                        
00004e57  CS_IRQHandler                  
2000363c  Center                         
000049e1  CenterConvert                  
20003d94  CharacteristicCount            
20003418  CharacteristicList             
20003ce0  ClockFrequency                 
00003f05  Clock_Delay1ms                 
00003edb  Clock_Delay1us                 
00003ec7  Clock_GetFreq                  
00003db1  Clock_Init48MHz                
20003cf4  Crystalstable                  
00004e57  DMA_ERR_IRQHandler             
00004e57  DMA_INT0_IRQHandler            
00004e57  DMA_INT1_IRQHandler            
00004e57  DMA_INT2_IRQHandler            
00004e57  DMA_INT3_IRQHandler            
00004e57  DebugMon_Handler               
00004e57  Default_Handler                
00004d93  DisableInterrupts              
00004e57  EUSCIA0_IRQHandler             
00004e57  EUSCIA1_IRQHandler             
0000427d  EUSCIA2_IRQHandler             
0000427d  EUSCIA2_IRQHandler             
00004e57  EUSCIA3_IRQHandler             
00004e57  EUSCIB0_IRQHandler             
00004e57  EUSCIB1_IRQHandler             
00004e57  EUSCIB2_IRQHandler             
00004e57  EUSCIB3_IRQHandler             
00004d99  EnableInterrupts               
00004da9  EndCritical                    
00004e57  FLCTL_IRQHandler               
00004e57  FPU_IRQHandler                 
0000471d  GPIO_Init                      
0000506d  HCI_EXT_ResetSystemCmd         
00003243  HOSTclock                      
0000320b  HOSTclose                      
000031cd  HOSTgetenv                     
00003171  HOSTlseek                      
0000311f  HOSTopen                       
000030d3  HOSTread                       
00003075  HOSTrename                     
0000303b  HOSTtime                       
00002fed  HOSTtime64                     
00002fb5  HOSTunlink                     
00002f69  HOSTwrite                      
00004e57  HardFault_Handler              
20003640  I1                             
20003cf0  IFlags                         
00001ca9  IRsampling                     
20003d9d  JackiBumpSensor                
20003d9c  JackiCommand                   
20003d9e  JackiSpeed                     
20003644  LPFSum                         
20003648  LPFSum2                        
2000364c  LPFSum3                        
000036ad  LPF_Calc                       
00003751  LPF_Calc2                      
00003815  LPF_Calc3                      
000035ed  LPF_Calc_old                   
0000364f  LPF_Init                       
000036fd  LPF_Init2                      
000037b3  LPF_Init3                      
00003599  LPF_Init_old                   
00004485  LaunchPad_Init                 
000044f5  LaunchPad_Input                
0000450f  LaunchPad_LED                  
0000452d  LaunchPad_Output               
20003650  Left                           
000049b9  LeftConvert                    
00005076  Masks                          
00004e57  MemManage_Handler              
20003630  Messageb                       
20003654  Messageindexb                  
00004427  Motor_Backward                 
0000435f  Motor_Forward                  
000042f9  Motor_Init                     
000043e1  Motor_Left                     
0000439b  Motor_Right                    
0000434b  Motor_Stop                     
00004e57  NMI_Handler                    
20003c85  NPI_AddCharDescriptor          
20003d48  NPI_AddCharValue               
20003d70  NPI_AddService                 
20003d79  NPI_CCCDUpdatedConfirmation    
20003cc3  NPI_GATTSetDeviceName          
20003cf8  NPI_GATTSetDeviceNameJacki     
0000507e  NPI_GetStatus                  
00005084  NPI_GetVersion                 
20003d0d  NPI_ReadConfirmation           
0000508a  NPI_Register                   
20003d22  NPI_SendNotificationIndication 
0000505c  NPI_SetAdvertisement1          
20003c60  NPI_SetAdvertisementData       
20003ca5  NPI_SetAdvertisementDataJacki  
00005048  NPI_StartAdvertisement         
20003d82  NPI_WriteConfirmation          
20003658  NoSOFErr                       
00001765  Nokia5110_Clear                
000019a7  Nokia5110_ClearBuffer          
000019db  Nokia5110_ClrPxl               
000019d1  Nokia5110_DisplayBuffer        
00001791  Nokia5110_DrawFullImage        
0000114b  Nokia5110_Init                 
000011f5  Nokia5110_OutChar              
00001465  Nokia5110_OutSDec              
00001235  Nokia5110_OutString            
00001253  Nokia5110_OutUDec              
0000169b  Nokia5110_OutUFix1             
000017c3  Nokia5110_PrintBMP             
00001729  Nokia5110_SetCursor            
00001a01  Nokia5110_SetPxl               
20003d98  NotifyCharacteristicCount      
200035d8  NotifyCharacteristicList       
00001a5d  OutValue                       
00004e57  PCM_IRQHandler                 
00004e57  PORT1_IRQHandler               
00004e57  PORT2_IRQHandler               
00004e57  PORT3_IRQHandler               
00004e57  PORT4_IRQHandler               
00004e57  PORT5_IRQHandler               
00004e57  PORT6_IRQHandler               
00004e57  PSS_IRQHandler                 
00003c73  PWM_Duty1                      
00003c93  PWM_Duty2                      
00003d37  PWM_Duty3                      
00003d57  PWM_Duty4                      
00003b89  PWM_Init1                      
00003bef  PWM_Init12                     
00003cb3  PWM_Init34                     
00004e57  PendSV_Handler                 
20003cec  Postwait                       
20003ce4  Prewait                        
2000365c  Pt                             
20003660  Pt2                            
20003664  Pt3                            
00004e57  RTC_C_IRQHandler               
00001a71  ReadCommand                    
00001a7f  ReadJackiBumpSensor            
00001b8d  ReadJackiSpeed                 
20003558  RecvBuf                        
00004e4b  Reset_Handler                  
20003668  Right                          
00004a09  RightConvert                   
00001a95  RunJacki                       
20003318  RxFIFO                         
2000366c  RxFifoLost                     
000041ad  RxFifo_Get                     
00004155  RxFifo_Init                    
00004167  RxFifo_Put                     
20003670  RxGetI                         
20003674  RxPutI                         
UNDEFED   SHT$$INIT_ARRAY$$Base          
UNDEFED   SHT$$INIT_ARRAY$$Limit         
00004e57  SVC_Handler                    
20003000  Screen                         
20003678  Size                           
00004d9f  StartCritical                  
20003698  Switch1                        
2000367c  Switch2                        
00004e57  SysTick_Handler                
20003dac  SystemCoreClock                
00002c3d  SystemCoreClockUpdate          
00002eb1  SystemInit                     
00004e57  T32_INT1_IRQHandler            
00004e57  T32_INT2_IRQHandler            
00004e57  T32_INTC_IRQHandler            
00004e57  TA0_0_IRQHandler               
00004e57  TA0_N_IRQHandler               
0000484f  TA1_0_IRQHandler               
0000484f  TA1_0_IRQHandler               
00004e57  TA1_N_IRQHandler               
00004e57  TA2_0_IRQHandler               
00004e57  TA2_N_IRQHandler               
00004e57  TA3_0_IRQHandler               
00004e57  TA3_N_IRQHandler               
00001a31  TestMotor                      
0000111f  Testlcdcommandwrite            
20003680  TimeOutErr                     
20003684  TimerA1Task                    
000047dd  TimerA1_Init                   
0000483b  TimerA1_Stop                   
000021f7  UART0_InChar                   
00002681  UART0_InString                 
00002241  UART0_InUDec                   
00002535  UART0_InUHex                   
000021b1  UART0_Init                     
000027e1  UART0_Initprintf               
00002207  UART0_OutChar                  
00002223  UART0_OutString                
000022c5  UART0_OutUDec                  
00002431  UART0_OutUDec4                 
00002485  UART0_OutUDec5                 
000024c1  UART0_OutUFix1                 
000024e9  UART0_OutUFix2                 
000025f9  UART0_OutUHex                  
00002665  UART0_OutUHex2                 
000042b1  UART1_FinishOutput             
0000424f  UART1_InChar                   
000041e3  UART1_InStatus                 
000041f3  UART1_Init                     
00004261  UART1_OutChar                  
00004293  UART1_OutString                
00004e57  UsageFault_Handler             
4000480c  WDTCTL_SYM                     
00004e57  WDT_A_IRQHandler               
00004db1  WaitForInterrupt               
00001b7b  WriteCommand                   
00001b9b  WriteJackiSpeed                
200031f8  __CIOBUF_                      
20010000  __STACK_END                    
00000200  __STACK_SIZE                   
00000400  __SYSMEM_SIZE                  
000051d0  __TI_CINIT_Base                
000051e0  __TI_CINIT_Limit               
000051b8  __TI_Handler_Table_Base        
000051c4  __TI_Handler_Table_Limit       
00004b29  __TI_auto_init                 
00004059  __TI_cleanup                   
20003d58  __TI_cleanup_ptr               
00004921  __TI_closefile                 
00004b99  __TI_decompress_lzss           
00004e3d  __TI_decompress_none           
00004655  __TI_doflush                   
20003d5c  __TI_dtors_ptr                 
20003d60  __TI_enable_exit_profile_output
20003d38  __TI_ft_end                    
ffffffff  __TI_pprof_out_hndl            
ffffffff  __TI_prof_data_size            
ffffffff  __TI_prof_data_start           
00004c33  __TI_readmsg                   
00000000  __TI_static_base__             
200034b8  __TI_tmpnams                   
00004c01  __TI_writemsg                  
00004e59  __TI_zero_init                 
00004a35  __aeabi_memclr                 
00004a35  __aeabi_memclr4                
00004a35  __aeabi_memclr8                
00004885  __aeabi_memcpy                 
00004885  __aeabi_memcpy4                
00004885  __aeabi_memcpy8                
00004a37  __aeabi_memset                 
00004a37  __aeabi_memset4                
00004a37  __aeabi_memset8                
20003d44  __aeabi_stderr                 
20003d3c  __aeabi_stdin                  
20003d40  __aeabi_stdout                 
ffffffff  __binit__                      
ffffffff  __c_args__                     
00004aaf  __mpu_init                     
2000fe00  __stack                        
00004db9  _args_main                     
00004c69  _c_int00                       
20003aa0  _ftable                        
20003d8c  _lock                          
00004e0f  _nop                           
00004e07  _register_lock                 
00004e01  _register_unlock               
200036a0  _sys_memory                    
00004db7  _system_post_cinit             
00004e65  _system_pre_init               
20003d90  _unlock                        
00004cc1  abort                          
000034ed  add_device                     
ffffffff  binit                          
00002c0d  calloc                         
0000349d  close                          
00004d11  copy_in                        
00003ecd  delay                          
00004cc9  exit                           
00004987  fclose                         
20003688  fcserr                         
0000271b  ferror                         
000046a1  fflush                         
000026fb  fgetc                          
000040af  fopen                          
00002957  free                           
00004085  freopen                        
00000000  interruptVectors               
00003479  lseek                          
00001e51  main                           
20003da8  main_func_sp                   
000028ed  malloc                         
00002b21  memalign                       
00004885  memcpy                         
00004a3d  memset                         
0000286d  minit                          
2000368c  nc                             
20003690  nl                             
20003694  nr                             
000033cb  open                           
0000263d  outnibble                      
000033a7  read                           
00002a19  realloc                        
0000331d  remove                         
0000337f  remove_device                  
00003341  rename                         
00004579  setvbuf                        
00004de9  strchr                         
00004dd1  strcmp                         
00004e15  strcpy                         
00004e29  strlen                         
00004d5d  strncpy                        
20003da0  time                           
00002739  uart_close                     
000027b7  uart_lseek                     
00002729  uart_open                      
0000274b  uart_read                      
000027d3  uart_rename                    
000027c7  uart_unlink                    
00002775  uart_write                     
0000331d  unlink                         
0000328d  write                          
20000000  x                              
20001000  x2                             
20002000  x3                             


GLOBAL SYMBOLS: SORTED BY Symbol Address 

address   name                           
-------   ----                           
00000000  __TI_static_base__             
00000000  interruptVectors               
000000e5  AP_Reset                       
0000010d  AP_Init                        
000001f3  AP_GetSize                     
00000200  __STACK_SIZE                   
0000021d  AP_EchoSendMessage             
00000289  AP_EchoReceived                
00000311  AP_SendMessage                 
00000400  __SYSMEM_SIZE                  
000004ad  AP_RecvMessage                 
00000689  AP_RecvStatus                  
00000697  AP_SendMessageResponse         
000006d7  AP_GetNotifyCCCD               
000006ed  AP_AddService                  
00000725  AP_RegisterService             
00000745  AP_AddCharacteristic           
00000901  AP_AddNotifyCharacteristic     
00000b2d  AP_SendNotification            
00000c2d  AP_StartAdvertisement          
00000c81  AP_StartAdvertisementJacki     
00000ce5  AP_GetStatus                   
00000d1d  AP_GetVersion                  
00000e11  AP_BackgroundProcess           
0000111f  Testlcdcommandwrite            
0000114b  Nokia5110_Init                 
000011f5  Nokia5110_OutChar              
00001235  Nokia5110_OutString            
00001253  Nokia5110_OutUDec              
00001465  Nokia5110_OutSDec              
0000169b  Nokia5110_OutUFix1             
00001729  Nokia5110_SetCursor            
00001765  Nokia5110_Clear                
00001791  Nokia5110_DrawFullImage        
000017c3  Nokia5110_PrintBMP             
000019a7  Nokia5110_ClearBuffer          
000019d1  Nokia5110_DisplayBuffer        
000019db  Nokia5110_ClrPxl               
00001a01  Nokia5110_SetPxl               
00001a31  TestMotor                      
00001a5d  OutValue                       
00001a71  ReadCommand                    
00001a7f  ReadJackiBumpSensor            
00001a95  RunJacki                       
00001b7b  WriteCommand                   
00001b8d  ReadJackiSpeed                 
00001b9b  WriteJackiSpeed                
00001bad  Button1                        
00001bbf  Button2                        
00001bd1  BLE_Init                       
00001ca9  IRsampling                     
00001e51  main                           
000021b1  UART0_Init                     
000021f7  UART0_InChar                   
00002207  UART0_OutChar                  
00002223  UART0_OutString                
00002241  UART0_InUDec                   
000022c5  UART0_OutUDec                  
00002431  UART0_OutUDec4                 
00002485  UART0_OutUDec5                 
000024c1  UART0_OutUFix1                 
000024e9  UART0_OutUFix2                 
00002535  UART0_InUHex                   
000025f9  UART0_OutUHex                  
0000263d  outnibble                      
00002665  UART0_OutUHex2                 
00002681  UART0_InString                 
000026fb  fgetc                          
0000271b  ferror                         
00002729  uart_open                      
00002739  uart_close                     
0000274b  uart_read                      
00002775  uart_write                     
000027b7  uart_lseek                     
000027c7  uart_unlink                    
000027d3  uart_rename                    
000027e1  UART0_Initprintf               
0000286d  minit                          
000028ed  malloc                         
00002957  free                           
00002a19  realloc                        
00002b21  memalign                       
00002c0d  calloc                         
00002c3d  SystemCoreClockUpdate          
00002eb1  SystemInit                     
00002f69  HOSTwrite                      
00002fb5  HOSTunlink                     
00002fed  HOSTtime64                     
0000303b  HOSTtime                       
00003075  HOSTrename                     
000030d3  HOSTread                       
0000311f  HOSTopen                       
00003171  HOSTlseek                      
000031cd  HOSTgetenv                     
0000320b  HOSTclose                      
00003243  HOSTclock                      
0000328d  write                          
0000331d  remove                         
0000331d  unlink                         
00003341  rename                         
0000337f  remove_device                  
000033a7  read                           
000033cb  open                           
00003479  lseek                          
0000349d  close                          
000034ed  add_device                     
00003599  LPF_Init_old                   
000035ed  LPF_Calc_old                   
0000364f  LPF_Init                       
000036ad  LPF_Calc                       
000036fd  LPF_Init2                      
00003751  LPF_Calc2                      
000037b3  LPF_Init3                      
00003815  LPF_Calc3                      
0000389d  ADC0_InitSWTriggerCh6          
000038ed  ADC_In6                        
0000390d  ADC0_InitSWTriggerCh67         
00003963  ADC_In67                       
00003999  ADC0_InitSWTriggerCh12         
000039e9  ADC_In12                       
00003a09  ADC0_InitSWTriggerCh17_12_16   
00003a79  ADC_In17_12_16                 
00003ab9  ADC0_InitSWTriggerCh19         
00003b09  ADC_In19                       
00003b89  PWM_Init1                      
00003bef  PWM_Init12                     
00003c73  PWM_Duty1                      
00003c93  PWM_Duty2                      
00003cb3  PWM_Init34                     
00003d37  PWM_Duty3                      
00003d57  PWM_Duty4                      
00003db1  Clock_Init48MHz                
00003ec7  Clock_GetFreq                  
00003ecd  delay                          
00003edb  Clock_Delay1us                 
00003f05  Clock_Delay1ms                 
00004059  __TI_cleanup                   
00004085  freopen                        
000040af  fopen                          
00004155  RxFifo_Init                    
00004167  RxFifo_Put                     
000041ad  RxFifo_Get                     
000041e3  UART1_InStatus                 
000041f3  UART1_Init                     
0000424f  UART1_InChar                   
00004261  UART1_OutChar                  
0000427d  EUSCIA2_IRQHandler             
0000427d  EUSCIA2_IRQHandler             
00004293  UART1_OutString                
000042b1  UART1_FinishOutput             
000042f9  Motor_Init                     
0000434b  Motor_Stop                     
0000435f  Motor_Forward                  
0000439b  Motor_Right                    
000043e1  Motor_Left                     
00004427  Motor_Backward                 
00004485  LaunchPad_Init                 
000044f5  LaunchPad_Input                
0000450f  LaunchPad_LED                  
0000452d  LaunchPad_Output               
00004579  setvbuf                        
00004655  __TI_doflush                   
000046a1  fflush                         
0000471d  GPIO_Init                      
000047dd  TimerA1_Init                   
0000483b  TimerA1_Stop                   
0000484f  TA1_0_IRQHandler               
0000484f  TA1_0_IRQHandler               
00004885  __aeabi_memcpy                 
00004885  __aeabi_memcpy4                
00004885  __aeabi_memcpy8                
00004885  memcpy                         
00004921  __TI_closefile                 
00004987  fclose                         
000049b9  LeftConvert                    
000049e1  CenterConvert                  
00004a09  RightConvert                   
00004a35  __aeabi_memclr                 
00004a35  __aeabi_memclr4                
00004a35  __aeabi_memclr8                
00004a37  __aeabi_memset                 
00004a37  __aeabi_memset4                
00004a37  __aeabi_memset8                
00004a3d  memset                         
00004aaf  __mpu_init                     
00004ab1  Bump_Init                      
00004ae5  Bump_Read                      
00004b29  __TI_auto_init                 
00004b99  __TI_decompress_lzss           
00004c01  __TI_writemsg                  
00004c2f  C$$IO$$                        
00004c33  __TI_readmsg                   
00004c69  _c_int00                       
00004cbd  C$$EXIT                        
00004cc1  abort                          
00004cc9  exit                           
00004d11  copy_in                        
00004d5d  strncpy                        
00004d93  DisableInterrupts              
00004d99  EnableInterrupts               
00004d9f  StartCritical                  
00004da9  EndCritical                    
00004db1  WaitForInterrupt               
00004db7  _system_post_cinit             
00004db9  _args_main                     
00004dd1  strcmp                         
00004de9  strchr                         
00004e01  _register_unlock               
00004e07  _register_lock                 
00004e0f  _nop                           
00004e15  strcpy                         
00004e29  strlen                         
00004e3d  __TI_decompress_none           
00004e4b  Reset_Handler                  
00004e57  ADC14_IRQHandler               
00004e57  AES256_IRQHandler              
00004e57  BusFault_Handler               
00004e57  COMP_E0_IRQHandler             
00004e57  COMP_E1_IRQHandler             
00004e57  CS_IRQHandler                  
00004e57  DMA_ERR_IRQHandler             
00004e57  DMA_INT0_IRQHandler            
00004e57  DMA_INT1_IRQHandler            
00004e57  DMA_INT2_IRQHandler            
00004e57  DMA_INT3_IRQHandler            
00004e57  DebugMon_Handler               
00004e57  Default_Handler                
00004e57  EUSCIA0_IRQHandler             
00004e57  EUSCIA1_IRQHandler             
00004e57  EUSCIA3_IRQHandler             
00004e57  EUSCIB0_IRQHandler             
00004e57  EUSCIB1_IRQHandler             
00004e57  EUSCIB2_IRQHandler             
00004e57  EUSCIB3_IRQHandler             
00004e57  FLCTL_IRQHandler               
00004e57  FPU_IRQHandler                 
00004e57  HardFault_Handler              
00004e57  MemManage_Handler              
00004e57  NMI_Handler                    
00004e57  PCM_IRQHandler                 
00004e57  PORT1_IRQHandler               
00004e57  PORT2_IRQHandler               
00004e57  PORT3_IRQHandler               
00004e57  PORT4_IRQHandler               
00004e57  PORT5_IRQHandler               
00004e57  PORT6_IRQHandler               
00004e57  PSS_IRQHandler                 
00004e57  PendSV_Handler                 
00004e57  RTC_C_IRQHandler               
00004e57  SVC_Handler                    
00004e57  SysTick_Handler                
00004e57  T32_INT1_IRQHandler            
00004e57  T32_INT2_IRQHandler            
00004e57  T32_INTC_IRQHandler            
00004e57  TA0_0_IRQHandler               
00004e57  TA0_N_IRQHandler               
00004e57  TA1_N_IRQHandler               
00004e57  TA2_0_IRQHandler               
00004e57  TA2_N_IRQHandler               
00004e57  TA3_0_IRQHandler               
00004e57  TA3_N_IRQHandler               
00004e57  UsageFault_Handler             
00004e57  WDT_A_IRQHandler               
00004e59  __TI_zero_init                 
00004e65  _system_pre_init               
00005048  NPI_StartAdvertisement         
0000505c  NPI_SetAdvertisement1          
0000506d  HCI_EXT_ResetSystemCmd         
00005076  Masks                          
0000507e  NPI_GetStatus                  
00005084  NPI_GetVersion                 
0000508a  NPI_Register                   
000051b8  __TI_Handler_Table_Base        
000051c4  __TI_Handler_Table_Limit       
000051d0  __TI_CINIT_Base                
000051e0  __TI_CINIT_Limit               
20000000  x                              
20001000  x2                             
20002000  x3                             
20003000  Screen                         
200031f8  __CIOBUF_                      
20003318  RxFIFO                         
20003418  CharacteristicList             
200034b8  __TI_tmpnams                   
20003558  RecvBuf                        
200035d8  NotifyCharacteristicList       
20003630  Messageb                       
20003638  ADCflag                        
2000363c  Center                         
20003640  I1                             
20003644  LPFSum                         
20003648  LPFSum2                        
2000364c  LPFSum3                        
20003650  Left                           
20003654  Messageindexb                  
20003658  NoSOFErr                       
2000365c  Pt                             
20003660  Pt2                            
20003664  Pt3                            
20003668  Right                          
2000366c  RxFifoLost                     
20003670  RxGetI                         
20003674  RxPutI                         
20003678  Size                           
2000367c  Switch2                        
20003680  TimeOutErr                     
20003684  TimerA1Task                    
20003688  fcserr                         
2000368c  nc                             
20003690  nl                             
20003694  nr                             
20003698  Switch1                        
200036a0  _sys_memory                    
20003aa0  _ftable                        
20003c60  NPI_SetAdvertisementData       
20003c85  NPI_AddCharDescriptor          
20003ca5  NPI_SetAdvertisementDataJacki  
20003cc3  NPI_GATTSetDeviceName          
20003ce0  ClockFrequency                 
20003ce4  Prewait                        
20003ce8  CPMwait                        
20003cec  Postwait                       
20003cf0  IFlags                         
20003cf4  Crystalstable                  
20003cf8  NPI_GATTSetDeviceNameJacki     
20003d0d  NPI_ReadConfirmation           
20003d22  NPI_SendNotificationIndication 
20003d38  __TI_ft_end                    
20003d3c  __aeabi_stdin                  
20003d40  __aeabi_stdout                 
20003d44  __aeabi_stderr                 
20003d48  NPI_AddCharValue               
20003d58  __TI_cleanup_ptr               
20003d5c  __TI_dtors_ptr                 
20003d60  __TI_enable_exit_profile_output
20003d70  NPI_AddService                 
20003d79  NPI_CCCDUpdatedConfirmation    
20003d82  NPI_WriteConfirmation          
20003d8c  _lock                          
20003d90  _unlock                        
20003d94  CharacteristicCount            
20003d98  NotifyCharacteristicCount      
20003d9c  JackiCommand                   
20003d9d  JackiBumpSensor                
20003d9e  JackiSpeed                     
20003da0  time                           
20003da8  main_func_sp                   
20003dac  SystemCoreClock                
2000fe00  __stack                        
20010000  __STACK_END                    
4000480c  WDTCTL_SYM                     
ffffffff  __TI_pprof_out_hndl            
ffffffff  __TI_prof_data_size            
ffffffff  __TI_prof_data_start           
ffffffff  __binit__                      
ffffffff  __c_args__                     
ffffffff  binit                          
UNDEFED   SHT$$INIT_ARRAY$$Base          
UNDEFED   SHT$$INIT_ARRAY$$Limit         

[359 symbols]
